S00D00004C616230312E73726563A7
S2144000008036002075294000712940007129400043
S214400010712940007129400071294000000000000D
S214400020000000000000000000000000A1024000A8
S214400030712940000000000041034000A503400035
S2144000407129400071294000712940007129400003
S21440005071294000712940007129400071294000F3
S21440006071294000712940007129400071294000E3
S21440007071294000712940007129400071294000D3
S21440008071294000712940007129400071294000C3
S21440009071294000712940007129400071294000B3
S2144000A071294000712940007129400071294000A3
S2144000B07129400071294000712940007129400093
S2144000C07129400071294000712940007129400083
S2144000D07129400071294000712940007129400073
S2144000E07129400071294000712940007129400063
S2144000F0712940007129400010B5054C237833B96A
S214400100044B13B10448AFF300800123237010BDA5
S2144001103C04002000000000343440000C4B43B147
S2144001200C480D4910B5AFF300800C48036823B95E
S21440013010BD0A48036833B97047094B002BF7D007
S214400140BDE810401847064B002BF5D0184700BFB7
S21440015000000000343440004004002034344000A6
S2144001600000000000F1080343604FF0FF32826059
S214400170C360036100230360704700230361704738
S21440018043684B609A688A609A68516099600861D3
S214400190036801330360704730B40D68B5F1FF3F24
S2144001A002D000F1080202E0026904E01A465368F1
S2144001B01C68A542FAD253684B6099608A605160C9
S2144001C0086103680133036030BC704703694268C6
S2144001D0816891608268416851605A68904204BF65
S2144001E082685A60002202611A68013A1A601868EA
S2144001F07047000008480068006880F308884FF0A1
S214400200000080F3148862B661B6BFF34F8FBFF329
S2144002106F8F00DF00BF000008ED00E0DFF80C0045
S214400220016841F4700101607047000088ED00E00D
S21440023000B583B0002301930B4B1B68B3F1FF3F1F
S21440024003D0E52109480A4B98474FF0500383F303
S2144002501188BFF36F8FBFF34F8F019B002BFCD0ED
S21440026003B05DF804FB00BF00000020FC314000F6
S214400270692D40004FF0807340F8043C21F00101A6
S21440028040F8081C054B40F80C3C40F8202C6FF01A
S214400290020340F8243C4438704700BF3102400017
S2144002A0074B19680868B0E8F04F80F30988BFF339
S2144002B06F8F4FF0000080F311887047AFF30080D7
S2144002C08004002008B54FF0500383F31188BFF335
S2144002D06F8FBFF34F8F094A136801331360012BAA
S2144002E000D008BD064B1B6813F0FF0FF9D04FF443
S2144002F0D2710448044B9847F3E700BF0000002043
S21440030004ED00E0FC314000692D400008B5084B84
S2144003101B683BB1064A1368013B13600BB983F375
S214400320118808BD40F2AB110248034B9847F1E7ED
S21440033000000020FC314000692D40000000000015
S214400340EFF30980BFF36F8F154B1A681EF0100F3E
S21440035008BF20ED108A20E9F04F10602DE9090013
S2144003604FF0500080F31188BFF34F8FBFF36F8F6D
S21440037001F084FA4FF0000080F3118809BC196838
S2144003800868B0E8F04F1EF0100F08BFB0EC108AB7
S21440039080F30988BFF36F8F704700BFAFF30080CC
S2144003A08004002008B54FF0500383F31188BFF354
S2144003B06F8FBFF34F8F054B984718B14FF0805261
S2144003C0034B1A60002383F3118808BDCD15400007
S2144003D004ED00E0084A0023136008490B60084B10
S2144003E01B680849A1FB03139B09013B06490B60A8
S2144003F007231360704700BF10E000E018E000E0FD
S2144004000C000020D34D621014E000E010B582B01E
S214400410364B1A68364B9A421ED0344B1A68354BC8
S2144004209A421FD0344B1A78D2B20192FF221A70E9
S2144004301B78DBB28DF803309DF8033003F0500391
S2144004402E4A137007222E4B1A609DF8033013F085
S214400450800F1ED006220CE04FF4967129482A4B96
S2144004609847DAE740F22D112648274B9847D9E7B8
S2144004700A469DF803305B00DBB28DF803309DF8EA
S2144004800330511E13F0800FF2D11D4B1A60032A21
S21440049004D040F25F111B481B4B9847184A13681C
S2144004A01B0203F4E0631360019BDBB2124A137035
S2144004B0164B1A6842F470021A601A6842F070428C
S2144004C01A60134B98470024124B1C60124B9847F7
S2144004D0124A136843F040431360114B9847114B40
S2144004E09847114B9847204602B010BD00ED00E0FB
S2144004F071C20F4170C20F4100E400E05804002072
S2144005005C040020FC314000692D400020ED00E0F6
S214400510D5034000000000201D02400034EF00E0FC
S214400520F50140007D1840003102400008B5EFF369
S21440053005830F2B06D90E4A9B5CDBB20D4A127818
S2144005409A4208D80C4B1B6803F4E0630B4A1268C7
S214400550934206D808BD4FF43F710948094B984767
S214400560F0E74FF443710648064B9847F2E700BF62
S214400570F0E300E0580400200CED00E05C040020AE
S214400580FC314000692D400010B4134A00E01A4682
S21440059013688342FBD351685418A0420AD041687E
S2144005A04418A3420BD00360904218BF10605DF819
S2144005B0044B70474068014451601046EFE7074CD3
S2144005C02468A34206D05B681944416013681B68E0
S2144005D00360E9E70360E7E7780400206004002052
S2144005E0F8B504462F4B1B68EBB12F4B98472F4B63
S2144005F01D6825424DD1002C4ED004F108018C4296
S2144006004AD211F0070F05D021F00703083399426C
S21440061042D2194600293CD0254B1E68B14238D8F4
S214400620244A146806E08C212348244B9847DCE78C
S21440063022461C466368994202D92368002BF7D1AC
S214400640184B1B689C4224D01768083723681360F1
S21440065063685B1A102B16D86268B61A14490E6087
S214400660174909688E423CBF15490E6015436560C0
S21440067000232360134A136801331360124B9847D4
S21440068067B13846F8BD6018436061600F4B9847C5
S214400690E2E70D4B984701E00B4B98470C4B9847C9
S2144006A00027EEE760040020B115400064040020F7
S2144006B068040020780400202C324000692D400059
S2144006C06C04002070040020091740008905400093
S2144006D0952D4000002844D010B5044650F8042C10
S2144006E0204B1B681A4211D050F8083CF3B140F238
S2144006F02B111D481D4B984754F8043C194A126864
S214400700134202D054F8081CA1B110BD4FF49571A5
S2144007101548164B984754F8083C002BE7D154F838
S214400720043C104A12681342EFD003E054F8043CED
S2144007300C4A126823EA020344F8043C0C4B9847E0
S2144007400C4A54F8043C11680B441360A4F10800AA
S214400750094B9847094A136801331360084B98477A
S21440076010BD7047640400202C324000692D4000C4
S214400770B11540006804002089054000740400203C
S214400780091740002DE9F84F0546354B1B6823B145
S21440079040F2A1113348344B9847D5F804B0BBF12A
S2144007A0000F52D008350026B0462D4FDFF8B4A0D3
S2144007B0DFF8B4901DE03B6873B33B68A34230D289
S2144007C039680BEB0403083B23F007033B60002229
S2144007D05A601A602246181B6060236001B10C60A4
S2144007E0536898440136083555F804BCBBF1000FF1
S2144007F01CD055F8084C14F0070F06D0E21D22F026
S2144008000702A344ABEB020B1446002ED3D1174B82
S2144008101C6000225A60D3E740F2C3115046C847D6
S214400820CBE74FF4E3715046C847C9E7104BC3F8CF
S2144008300080104BC3F80080B8F1000F0AD04FF08C
S21440084000420D4B1A60BDE8F88F0023084A13603B
S214400850084A136040F2EF110248034B9847EEE710
S214400860600400202C324000692D400078040020AF
S2144008706C040020680400206404002010B5044680
S214400880044B9847A46B044B9847B4FA84F040094D
S21440089010BD00BFC50240000D03400070B50446C1
S2144008A01646856B026C5AB90368002013B10135B1
S2144008B0A56370BDA068174B98470023A360F6E772
S2144008C06EB94068144B98476368226C1344636063
S2144008D0A268934219D3236863600020E7E7C068A4
S2144008E00D4B9847226C5242E3681344E3602168FC
S2144008F08B4202D2A3681A44E260022E01D0002046
S214400900D5E725B1013D0020D1E70020CFE7002004
S214400910CDE700BF3D1C40000D2E400070B582B0B4
S2144009200190846C5CB1A26BE36B9A420DD2A26BD1
S214400930E36B9A420FD30026304602B070BD40F6B5
S2144009409A311748174B9847EDE740F69B311448C5
S214400950144B9847EBE794F845506DB2002201A936
S2144009602046114B98470646B5F1FF3F06D07F2DEF
S2144009700FD001356DB284F84550DDE7636A002B31
S214400980DAD004F12400094B9847002818BF012606
S214400990D2E740F6BB310248024B9847E9E700BF32
S2144009A058324000692D40009D084000D91A40004A
S2144009B0026C72B110B5C3681344C3608468A34226
S2144009C024BF0368C3600C46C1682046014B984765
S2144009D010BD70470D2E40002DE9F0410546234BD3
S2144009E0984795F8454064B2002C18DD204EDFF855
S2144009F08C80204F08E06B6A8BB105F12400B84725
S214400A0058B9013C64B254B1AB6C002BF3D02846C5
S214400A10B0470028F5D0C047F3E7C047F1E7FF23CB
S214400A2085F84530144B9847104B984795F8444006
S214400A3064B2002C12DD2B6983B105F110070D4E10
S214400A40DFF8388004E0013C64B23CB12B692BB13E
S214400A503846B0470028F6D0C047F4E7FF2385F86D
S214400A604430054B9847BDE8F08100BFC5024000C2
S214400A701D094000D91A40000D034000111C4000DB
S214400A8038B50D460446D0B11B4B98472268216CBA
S214400A90E36B03FB01F3D018A0600020A063626004
S214400AA05B1A1344E360FF2384F8443084F84530EF
S214400AB0D5B923694BB9114B9847012038BD40F250
S214400AC00D110F480F4B9847DEE704F110000E4B10
S214400AD098470028EFD04FF080520C4B1A60BFF377
S214400AE04F8FBFF36F8FE6E704F11000084DA8471D
S214400AF004F12400A847DEE7C50240000D0340008D
S214400B0058324000692D4000D91A400004ED00E0FC
S214400B1065014000F8B50D460646A8B105FB06F44B
S214400B20D5B1B4FBF5F39E4204D04FF4C7711548D7
S214400B30154B984704F14C07BC420FD340F2911135
S214400B401048114B984709E04FF4C3710D480E4BBF
S214400B509847E3E720600BE004F14C0738460B4B20
S214400B609847044660B1002DF4D000F14C03036072
S214400B70E663256401212046054B98470023A3647D
S214400B802046F8BD58324000692D4000E10540003F
S214400B90810A40002DE9F04F85B0894601921E46F5
S214400BA00446A8B1B9F1000F18D0022E1FD0674BEB
S214400BB0984730B9019B23B140F211316448654BE8
S214400BC098474FF0000A644D644FDFF89C815EE022
S214400BD04FF443715E485F4B9847E3E7236C002B26
S214400BE0E3D040F20D315A485A4B9847DDE7E36B65
S214400BF0012BDCD040F20E315548564B9847D6E78D
S214400C00A56B324649462046554B9847A36CA3B140
S214400C10022E00F096802046524B984738B14FF04F
S214400C208052514B1A60BFF34F8FBFF36F8F4F4BBD
S214400C309847012005B0BDE8F08F636A53B9002895
S214400C40F5D04FF08052484B1A60BFF34F8FBFF33A
S214400C506F8FECE704F12400454B98470028E6D018
S214400C604FF08052404B1A60BFF34F8FBFF36F8FE9
S214400C70DDE73E4B98470020DCE702A8B84713E084
S214400C8020463C4B98473C4B98474FF0010AA847B4
S214400C90A26BE36B9A42B3D3022E48D0019B002B43
S214400CA0E7D0BAF1000FE8D0304B9847334B98471F
S214400CB0A84794F844305BB2B3F1FF3F04BF00232B
S214400CC084F8443094F845305BB2B3F1FF3F04BF3C
S214400CD0002384F84530254B984701A902A8284BA5
S214400CE09847E8B9A847D4F838B0D4F83CA01F4B8A
S214400CF09847D345C4D1019904F11000214B984739
S214400D0020461C4B98471C4B98470028BDD14FF0B7
S214400D108053C8F80030BFF34F8FBFF36F8FB4E7F0
S214400D202046144B9847144B9847002082E7A56B03
S214400D300222494620460A4B9847A36C002B3FF4B4
S214400D407CAF002D3FF467AF71E700BF1D1C40002D
S214400D5058324000692D4000C50240006D1B4000DF
S214400D609D0840001D09400004ED00E00D034000D2
S214400D70D91A4000D909400009174000B115400073
S214400D80851B4000511A40002DE9F0470F4691461A
S214400D901E460446C8B1F7B1022E25D03A4B9847B6
S214400DA0EFF311884FF0500383F31188BFF36F8F32
S214400DB0BFF34F8FA26BE36B9A421ED3022E1CD01A
S214400DC0002088F31188BDE8F0874FF478712F48EB
S214400DD02F4B9847DFE7236C002BDDD040F2E13104
S214400DE02A482B4B9847D7E7E36B012BD6D040F2E7
S214400DF0E2312648264B9847D0E794F845506DB2E6
S214400E00D4F838A0324639462046224B9847B5F1AA
S214400E10FF3F07D07F2D29D001356DB284F845506D
S214400E200120CEE7A36C8BB1022E0AD020461A4B87
S214400E30984708B3B9F1000F20D00120C9F8000048
S214400E40BFE7BAF1000FF1D00120BAE7636A0BB9E9
S214400E500120B6E704F12400104B984780B1B9F161
S214400E60000F0FD00120C9F80000AAE740F26B41FE
S214400E700648074B9847CFE70120A2E70120A0E7A6
S214400E8001209EE701209CE72D0540005832400097
S214400E90692D40009D0840001D094000D91A4000B9
S214400EA02DE9F04784B088460192044698B1B8F1DF
S214400EB0000F16D04D4B984730B9019B23B14FF4E5
S214400EC0A7614B484B4B98474FF0000A4A4D4B4E54
S214400ED0DFF8389144E040F22F514548454B98475B
S214400EE0E5E7236C002BE5D040F233514048414BB8
S214400EF09847DFE741462046414B98477B1EA36311
S214400F0023692BB93F4B9847012004B0BDE8F087D2
S214400F1004F110003C4B98470028F3D04FF0805225
S214400F203A4B1A60BFF34F8FBFF36F8FEAE7354BEC
S214400F3098470020E9E702A8B0471BE02046344B1C
S214400F409847344B984709E02046314B9847314BF9
S214400F5098472046304B9847002844D14FF0010A26
S214400F60A847A76B002FC5D1019B002BDFD0BAF155
S214400F70000FE0D0234B9847284B9847A84794F853
S214400F8044305BB2B3F1FF3F04BF002384F84430E3
S214400F9094F845305BB2B3F1FF3F04BF002384F8BA
S214400FA04530184B984701A902A81D4B9847002882
S214400FB0CAD12046184B98470028BFD0019904F163
S214400FC02400184B98472046114B9847114B98479A
S214400FD00028C3D14FF08053C9F80030BFF34F8F7D
S214400FE0BFF36F8FBAE700208FE700BF1D1C40009D
S214400FF058324000692D4000C50240006D1B40003D
S214401000B10940000D034000D91A400004ED00E04D
S214401010D9094000091740007D084000B11540003E
S214401020851B4000511A400010B5044630B1064BAF
S2144010309847A46B054B9847204610BD40F2C171B7
S2144010400348044B9847F2E7C50240000D034000B2
S21440105058324000692D400010B40B4B1B6853B10A
S2144010600123094C54F8332032B10133082BF9D10F
S2144010705DF8044B70470023034A42F8331002EBF6
S214401080C3035860F4E700BF0806002070B5044666
S2144010900D461646114B984794F844305BB2B3F170
S2144010A0FF3F04BF002384F8443094F845305BB2D9
S2144010B0B3F1FF3F04BF002384F84530084B984700
S2144010C0A36B1BB12046074B984770BD3246294656
S2144010D004F12400044B9847F4E700BFC5024000E3
S2144010E00D034000D9094000911A4000074B1B6889
S2144010F01B6833B1054B1B68DB681A68044B1A60E3
S21440110070474FF0FF32024B1A607047840400204D
S2144011106C05002010B5044628B162690A4B9A4215
S21440112007D0002010BD40F21D710848084B984774
S214401130F3E7A06A074B984203D0B0FA80F0400924
S21440114010BD002010BD00BF90050020703240004A
S214401150692D40007805002080B5164DDFF86C807C
S214401160154FDFF86C902B68BBB1144EC047FB6838
S214401170DC68201DB047124A1368013B13602B6899
S214401180013B2B600F4B9847206BDFF848A0D047B9
S2144011902046D0472B68002BE8D10B4B1B68012B11
S2144011A0E1D94FF08053C9F80030BFF34F8FBFF3FB
S2144011B06F8FD8E730050020A4050020CD01400001
S2144011C02C0500200D0340008C040020C502400082
S2144011D004ED00E0D506400070B504460E461D4BB3
S2144011E01D681D4B186804301C4B984748B91A4B6D
S2144011F01A681B490B68D06A0122824023EA020320
S2144012000B60B4F1FF3F13D02C44134B1B685C605B
S214401210A54216D8134B18680F4B19680431124B69
S2144012209847124B1B689C423CBF104B1C6070BDDD
S214401230002EE9D0084B196804310D480D4B9847ED
S21440124070BD0D4B1868044B19680431064B98471F
S21440125070BD00BFB805002080040020CD014000CE
S2144012603C05002084040020990140006C050020C5
S2144012709005002081014000880400202DE9F04FB1
S21440128083B083460D460193DDF834A09700384678
S214401290614B9847002800F09280064664205E4BDB
S2144012A098470446002800F0878006633A46A52102
S2144012B030465A4B9847043F236B1F4427F0070796
S2144012C0002D7FD02B7884F834302B7863B12B46B2
S2144012D004F1340205F11301587802F8010F13F8AF
S2144012E0010F08B18B42F7D1002384F847300C9D9C
S2144012F0072D28BF0725E562A5640026E66404F1AD
S21440130004084046DFF86891C84704F11800C8470B
S2144013102461C5F10805A561646226656665A66513
S214401320E66584F86060019A594638463C4B9847D3
S2144013302060BAF1000F01D0CAF80040394B9847F8
S214401340394A136801331360384B1B68002B3DD075
S214401350374B1B683BB9354B1B68DA6AE36A9A42DF
S2144013609CBF324B1C60334A136801331360E06AFB
S214401370314A1168012383400B43136000EB800021
S21440138041462E4B03EB80002D4B98472D4B9847FC
S214401390274B1B68002B39D0244B1B68DA6AE36A5C
S2144013A09A4237D24FF08052274B1A60BFF34F8F86
S2144013B0BFF36F8F01202AE03046244B98474FF00A
S2144013C0FF3024E0002384F8343090E7174B1C604D
S2144013D01368012BC7D1194D05F1A0071C4E2846AE
S2144013E0B0471435AF42FAD11A4F3846184DA84781
S2144013F0194E3046A8471948A8471948A8471948DB
S214401400A847194B1F60194B1E60ACE7012003B07C
S214401410BDE8F08F0120FAE7E1054000412F40008B
S21440142075024000C50240002C05002080040020C4
S2144014308C050020380500203C0500208C04002048
S214401440810140000D03400004ED00E0D506400059
S2144014506501400040050020540500207805002026
S214401460A405002090050020840400208804002065
S2144014707B01400038B568B104461C4B1B68984257
S21440148032D01B4B984720461A4B984750B91A4BB8
S214401490984738BD40F247711848194B9847134B48
S2144014A01B6838BD251D2846164B9847E06A164AE5
S2144014B01168012383400B43136000EB80002946EC
S2144014C0124B03EB8000124B9847084B1B68E26AAE
S2144014D0DB6A9A42DBD34FF080520E4B1A60BFF362
S2144014E04F8FBFF36F8FD2E738BD00BF8004002018
S2144014F0C5024000151140000D0340007032400008
S214401500692D4000CD0140003C0500208C040020A1
S2144015108101400004ED00E010B582B0184B019305
S21440152000230093822217491748184CA0470128E9
S21440153006D0B0F1FF3F1CD0154B1B6802B010BD63
S214401540144B98470128F4D14FF0500383F3118889
S214401550BFF36F8FBFF34F8F4FF0FF320E4B1A60C3
S21440156001220E4B1A6000220D4B1A600D4B984715
S214401570E2E740F636010C480C4B9847DCE700BFE4
S2144015806805002088324000591140007D12400016
S21440159004000020A11D40006C0500208C050020A2
S2144015A0B80500200D04400070324000692D400010
S2144015B0024A136801331360704700BF34050020A9
S2144015C0014B1868704700BFB80500202DE9F0476A
S2144015D03D4B1B68002B70D13C4B1A6802F101084A
S2144015E0C3F80080B8F1000F0FD1394B1B681B6859
S2144015F01BBB374A1168374B186810601960364A6B
S214401600136801331360354B9847354B1B68984534
S21440161019D20025334B1B68DB6A03EB83039B0020
S214401620314AD358022B28BF0125304B1B68002B6C
S21440163018BF01252846BDE8F08740F6BC212C4857
S2144016402C4B9847D5E70025214FDFF8B4A0DFF8AC
S214401650B49021E04FF0FF32214B1A60DAE7204A7F
S2144016601360D7E704F11800D047E06AD9F80020A5
S214401670012383401343C9F8003000EB8000314615
S214401680194B03EB80001C4B9847164B1B68E26ACD
S214401690DB6A9A4228BF01253B681B68002BD9D0DD
S2144016A03B68DB68DC6863689845D8D3261D3046BF
S2144016B0D047A36A002BD5D1D7E7104A1368013329
S2144016C013600025B6E700BF34050020B8050020AB
S2144016D0840400208804002070050020ED1040009F
S2144016E06C050020800400208C040020BC050020EF
S2144016F070324000692D4000810140007405002092
S214401700CD0140003C0500202DE9F041344B1B68DC
S214401710002B33D0334B9847314B1A68013A1A6046
S2144017201B68002B53D1304B1B68002B2CD0002459
S2144017302E4EDFF8EC802E4F33683BB3F368DC6800
S21440174004F11800C047251D2846C047E06A3A689D
S2144017500123834013433B6000EB80002946254B22
S21440176003EB8000244B9847244B1B68E26ADB6AF5
S2144017709A42E1D30122224B1A60DDE740F6A901E6
S2144017802048214B9847C5E7002421E00CB11F4B69
S21440179098471F4B1C686CB11E4D194F012601E03F
S2144017A0013C04D0A8470028FAD03E60F8E7002263
S2144017B0174B1A60124B1B687BB14FF08052164B8A
S2144017C01A60BFF34F8FBFF36F8F012400E00024F1
S2144017D0124B98472046BDE8F0810024F8E700BF4A
S2144017E034050020C50240002C0500207805002066
S2144017F03C0500208C04002081014000800400202D
S214401800BC05002070324000692D4000ED104000BD
S21440181074050020CD15400004ED00E00D034000A7
S214401820CD01400010B560B104460D4B1B688BB926
S2144018300C4B9847002120460B4B98470B4B98473C
S21440184038B94FF080520A4B1A60BFF34F8FBFF340
S2144018506F8F10BD40F23F510648074B9847E7E769
S21440186034050020B1154000D9114000091740004A
S21440187004ED00E070324000692D40002B4B1B68A1
S214401880002B34D110B50022294B1A60294B1B6817
S2144018901B6B1A68B2F1A53F2DD0264B1868196805
S2144018A03431254B9847254B1C68B4FA84F4E4B28F
S2144018B0C4F11F0404EB84039B00214AD3583BB376
S2144018C01F4BA200111903EB81014868406848602D
S2144018D022440B460833984220D004EB8404184B2D
S2144018E003EB84046368DA68124B1A6010BD012269
S2144018F00F4B1A6070475A68B2F1A53FCDD19A682F
S214401900B2F1A53FC9D1DB68B3F1A53FC5D1CAE75F
S21440191040F6F7310B480C4B9847D1E741681346E1
S214401920074A02EB83035960D7E700BF340500201F
S214401930BC05002080040020A92D40003C05002066
S2144019408C04002070324000692D400038B50446B3
S2144019502F4B9847002C2FD0251D28462D4B9847B7
S21440196070B9E26A02EB82039B002B49CB583BB925
S2144019702A480368012101FA02F223EA02020260C1
S214401980A36A1BB104F11800224B98472946244805
S214401990244B984794F86030DBB2012B04BF0023F9
S2144019A084F86030204B9847204B1B683BB9204B4F
S2144019B01B689C420AD038BD1D4B1C68CCE7144BB4
S2144019C098471C4B9847184B9847F0E7174B1B68AF
S2144019D08BB1194B1B6843B94FF08052174B1A60B6
S2144019E0BFF34F8FBFF36F8F38BD40F2F36114489B
S2144019F0144B9847F0E70A4B1A68134B1B689A42F9
S214401A0002D0124B9847D6E70022094B1A6038BDE1
S214401A10C5024000CD0140008C0400203C0500205B
S214401A2090050020810140000D0340008C050020F9
S214401A3080040020ED1040003405002004ED00E056
S214401A4070324000692D40002C0500207D18400073
S214401A5038B50C46054650B1084B1968183128462B
S214401A60074B984701212046064B984738BD40F61D
S214401A7011410548054B9847EEE700BF800400201B
S214401A8099014000D911400070324000692D400055
S214401A9070B50D461446064670B10A4B19681831A3
S214401AA03046094B9847002C21460CBF28464FF03D
S214401AB0FF30064B984770BD4FF444610448054BD1
S214401AC09847EAE78004002081014000D911400091
S214401AD070324000692D400038B5C368DC682CB3CE
S214401AE004F118052846174B9847174B1B681BBB35
S214401AF0251D2846134B9847E06A144A116801236F
S214401B0083400B43136000EB80002946104B03EBE9
S214401B108000104B9847104B1B68E26ADB6A9A427B
S214401B2083BF01200D4B1860002038BD4FF447613D
S214401B300B480C4B9847D3E729460B48054B98472C
S214401B40E9E700BFCD014000340500203C050020F9
S214401B508C0400208101400080040020BC05002049
S214401B6070324000692D400078050020034B1B680A
S214401B700360034B1B684360704700BF700500203E
S214401B80B805002070B50C460546D0B1FCB1194BDF
S214401B909847194B1B682268B2F1FF3F28D0696806
S214401BA0164800682E68864201D08B4215D25B1AD2
S214401BB0934216D3002323600124114B98472046B6
S214401BC070BD40F6EB410F480F4B9847DEE740F6B6
S214401BD0EC410C480C4B9847D9E70023236001247E
S214401BE0EBE7D31A23602846084B98470024E4E7DF
S214401BF00024E2E7C5024000B8050020700500203A
S214401C000D03400070324000692D40006D1B4000BF
S214401C100122014B1A607047BC050020054B1B682B
S214401C2033B1054B1B68002B0CBF022000207047C9
S214401C30012070478C0500203405002000283FD046
S214401C4038B50446204B1B68984204D041F23D010B
S214401C501E481F4B9847E36C4BB1E36C013BE36473
S214401C60E16AA26C91422DD03BB1002038BD41F2D2
S214401C703E011648164B9847EFE7251D2846154B5C
S214401C80984738B914490B68E06A0122824023EA33
S214401C9002030B60A06CE062C0F10803A3610E4A29
S214401CA01168012404FA00F30B43136000EB800034
S214401CB029460A4B03EB8000094B9847204638BD1F
S214401CC000207047002038BD80040020703240005D
S214401CD0692D4000CD0140003C0500208C040020CA
S214401CE08101400008B54160006191420CD8D21A8B
S214401CF083699A4201D3012008BD011D094B18682B
S214401D00094B9847002008BD9A4201D2994206D214
S214401D10011D064B1868044B9847002008BD01205B
S214401D2008BD00BFC405002099014000C005002042
S214401D3070B5104B9847104B1B6813B10F4B984724
S214401D4070BD0F4D28460F4EB0470F4C2046B0474B
S214401D500E4B1D600E4B1C600022102105200D4BC3
S214401D609847054B18600028E8D00B490B4B98471E
S214401D70E4E700BFC5024000F40500200D03400024
S214401D80C805002065014000DC050020C005002095
S214401D90C4050020150B400090324000591040000A
S214401DA010B582B00D4B98470D4B1B687BB10D4B61
S214401DB001930723009300234FF482720A490B488D
S214401DC00B4CA047034610B1184602B010BD40F277
S214401DD00D110848084B98470023F5E7311D400091
S214401DE0F4050020F805002098324000291F4000E6
S214401DF07D124000A0324000692D4000F0B585B00D
S214401E000C4616461F460546B0B1124B1868F8B148
S214401E10009401960295052C14DC0F4B9847022837
S214401E204FF000030CBF0A9A1A46694609480068F4
S214401E300A4CA04705B0F0BD4FF4C1710848094BA5
S214401E409847E2E700233A466946074CA047F1E741
S214401E500020EFE7F40500201D1C4000950B4000D5
S214401E60A0324000692D4000890D40002DE9F04722
S214401E7082B08046234B98470746234B1B689842C0
S214401E8016D30023C8F800301F4B1F60384602B0F8
S214401E90BDE8F087002100910B46524620461B4C79
S214401EA0A04738B940F2A93119481A4B984701E083
S214401EB0194D1A4E2B681A68D2B1DB68D3F800A0C9
S214401EC0DC6804F104094846B047236A2046984730
S214401ED094F8243013F0040FECD0A36953449A4589
S214401EE0D8D263602461494628680D4B9847E1E79D
S214401EF00C4A10680849086013600123C8F800308F
S214401F00C2E700BFC1154000F0050020FD1D40009F
S214401F10A0324000692D4000C0050020CD014000A1
S214401F2099014000C40500202DE9F04F89B0754E58
S214401F30754F764DDFF80092DFF8008233681A68F6
S214401F401AB3DB68D3F800A0714B984704A8714BCE
S214401F5098470446049A002A52D1504526D3B8479B
S214401F603368DB68D3F80CB00BF10400C0479BF82D
S214401F70243013F0040F2AD123F001038BF82430C9
S214401F80DBF82030584698471FE0614B984704A836
S214401F90604B98470446049B002B31D15E4B1B6830
S214401FA01A68B2FA82F252094FF0000AAAEB04010C
S214401FB028685A4B9847B84738B94FF08053C9F805
S214401FC00030BFF34F8FBFF36F8F554C21E0DBF8E7
S214401FD018105346224651445846524CA0470028B3
S214401FE0CED0002100910B46524658464E4CA04754
S214401FF00028C5D14FF405714C484D4B9847BFE774
S214402000B847E2E707990698059B9847049B002B3C
S21440201008DA002204A92868A04700288ED0049B2E
S214402020002BEFDBDDF818A0DAF8143013B10AF114
S2144020300400C04703A8374B98478346049B092BA8
S214402040E7D8DFE803F00505053138510505313896
S2144020509AF8243043F001038AF824300599DAF8D8
S21440206018000B465A46014450462E4CA0470028BE
S214402070ABD0DAF82030504698479AF8243013F020
S214402080040FA2D0DAF81820002100910B460598DC
S21440209002445046244CA047002896D140F23631A0
S2144020A02248234B984790E79AF8243023F00103C0
S2144020B08AF8243089E79AF8243043F001038AF8F6
S2144020C02430059BCAF8183043B1DAF818105B463E
S2144020D05A4659445046134CA04776E740F24F3193
S2144020E01248134B9847F0E79AF8243013F0020F43
S2144020F004D023F001038AF8243066E750460D4B9F
S214402100984762E7C005002009174000F405002004
S214402110B11540006D1E4000C40500208D104000E3
S214402120A10E4000E51C4000FD1D4000A0324000CE
S214402130692D4000D506400004ED00E0CD0140008A
S21440214070470000012809D0022810D0032804D187
S214402150B1B94FF080720D4B5A63704719B10422E3
S2144021600B4B1A6370470422094B5A63704719B1E8
S2144021700822074B1A6370470822054B5A6370477C
S2144021804FF08072014B1A63704700BF000E0E403E
S21440219000100E402DE9F04383B005464FF4FA7622
S2144021A00024DFF8EC80354FDFF8E89004E0344B4D
S2144021B01868344B984728BB2146E8B2C047E443EA
S2144021C0E4B23046B847012DF1D0022D32D0032D6F
S2144021D0F2D1D9F800002B4B98470028ECD00022CB
S2144021E00DF10701D9F80000274B98479DF80730B6
S2144021F0012B3DD0002BDFD1B6F57A7FDCD2643E92
S214402200B6B2D9E700220DF107011D4B18681E4BE8
S21440221098479DF80730012B07D0002BCCD1B6F558
S2144022207A7FC9D2C836B6B2C6E7002ECFD0C83EEF
S214402230B6B2CCE7154B1868124B98470028BBD06F
S21440224000220DF10701114B18680F4B98479DF877
S2144022500730012B07D0002BAED1B6F57A7FABD234
S2144022606436B6B2A8E7002EA6D0643EB6B2A3E760
S214402270002EA1D06436B6B29EE700BF25184000B7
S2144022805406002029104000A10E40004C060020B5
S2144022904521400058060020F8B505460B4C0C4F2B
S2144022A00C4E05E0E8B20C4B984764200B4B984721
S2144022B0A0470128F6D0022804D00328F5D1E8B27A
S2144022C0B847F2E7E8B2B047EFE700BF75244000F2
S2144022D03D26400095254000E92440002518400052
S2144022E0F8B50024074F4FF48006074D05E07E639F
S2144022F0E443E4B24FF47A70A847002CF7D03E632C
S214402300F6E700BF00140E402518400070B58EB0AA
S2144023100A4C0B4D0B4E2068A8470028FBD00022E5
S21440232001A92068084B984701A8084B9847C2B2B5
S21440233001A93046064B9847EDE700BF50060020FF
S2144023402910400000060E40A10E4000013040001B
S2144023503527400010B4444A04231361C2F8A03025
S214402360536308231361C2F8A03053633F4B4FF0CA
S21440237080711961C3F8A01059634FF0007119615C
S214402380C3F8A01059634FF400401861C3F8A0008A
S21440239058634FF480305861C3F8A0005866C3F8BD
S2144023A0900058651862C3F884001C6F24F480348B
S2144023B01C675C6F24F480345C67C3F8C000C3F8C5
S2144023C0D400C3F8B0004FF400605861C3F8A000D2
S2144023D05866C3F8900058651862C3F884001C6FAE
S2144023E024F400641C675C6F24F400645C67C3F8E4
S2144023F0C000C3F8D400C3F8B00003F5C063596109
S214402400C3F8A0105966C3F8901059651962C3F80E
S2144024108410186F20F000701867586F20F0007016
S2144024205867C3F8C010C3F8D410C3F8B0104FF4C0
S21440243080435361C2F8A0305366C2F8903053656B
S2144024401362C2F88430116F21F480411167516FD6
S21440245021F480415167C2F8C030C2F8D430C2F887
S214402460B0305DF8044B704700100E40000E0E4032
S2144024707047000010B5194BDB6B13F4803F0CD04F
S2144024800024164BDB6B13F4006F10D0144BDB6B41
S21440249013F0007F16D0204610BD0A20114B9847F7
S2144024A00E4BDC6B84F48034C4F30044E9E70A2026
S2144024B00C4B9847094BDB6B03F40063002B08BFBB
S2144024C00224E3E70A20074B9847054BDB6B03F0F3
S2144024D00073002B08BF0324DDE700BF000E0E404C
S2144024E000140E402518400070B5214B1B680BB1F8
S2144024F001280AD01F4B1B680BB1022816D01E4B72
S2144025001B680BB1032822D070BD1C4E00243470CB
S214402510234601221A491B4800681B4DA8472346FC
S2144025200122314612480068A84770BD134E002469
S214402530347023460122154912480068124DA847B8
S2144025402346012231460B480068A84770BD0B4E13
S21440255000243470234601220D490A4800680A4D7B
S214402560A84723460122314603480068A847CBE7E0
S214402570540600204C06002058060020480600203E
S214402580BC32400050060020950B4000DC32400034
S214402590FC32400070B5204B1B680BB101280AD0B6
S2144025A01E4B1B680BB1022813D01D4B1B680BB18A
S2144025B003281FD070BD002301221A491A4800681C
S2144025C01A4CA04700230122194913480068A04727
S2144025D070BD174E01243470002322461549124818
S2144025E00068124DA8470023224631460B48006833
S2144025F0A84770BD0E4E01243470002322460E4973
S21440260009480068094DA847002322463146044839
S2144026100068A847CEE700BF540600204C060020BE
S214402620580600201C33400050060020950B400002
S214402630480600203C3340005C33400010B501287B
S21440264004D0022811D003281ED010BD164B18689F
S214402650164B984700230122154916480068164C29
S214402660A0470020154B984710BD154B18680F4BD8
S21440267098470023012213490E4800680E4CA04795
S21440268000200E4B984710BD0F4B1868074B9847D5
S214402690002301220D4907480068074CA047002048
S2144026A0064B9847D1E700BF00060020751440004F
S2144026B07C33400050060020950B40004D194000EA
S2144026C00406002094334000FC050020AC33400054
S2144026D010B50446124B4FF4C0621A66C3F89020F9
S2144026E05A655A62C3F88020196F21F4C061196791
S2144026F0596F21F4C06159675A600720094B9847C3
S214402700AC232360342323624FF40063636040F2BB
S2144027100223C4F8203150232360002010BD00BFA0
S214402720000E0E401D294000436913F0020FFBD0F7
S214402730C161704762B1F8B5154606460C460D4471
S214402740044F14F8011B3046B847AC42F9D1F8BDE7
S214402750704700BF2927400010B50E480E4B9847DB
S2144027603E2100200D4B98470D4CA0470028FCD03A
S2144027700C4B98470C4A0D4B9A620D4CA0470028CC
S214402780FCD010200B4B98470B4B98470B48024BFE
S214402790984710BD000E2707492B40009928400057
S2144027A0ED284000FD284000013F0F2000040E4069
S2144027B00D294000352840003D2A400000D8B80585
S2144027C010B54FF40042184B5A600920174CA047EA
S2144027D00A20A0470B20A0470C20A0470D20A0476A
S2144027E0134B4FF480021A61C3F8A0201A63A3F576
S2144027F0C06304225A61C3F8A0205A66C3F89020EA
S2144028005A651A62C3F88420196F21F004011967CB
S214402810596F21F004015967C3F8C020C3F8D4208B
S214402820C3F8B02010BD00BF50180E401D29400010
S21440283000140E40174A136B23F0700318431063BE
S214402840936E13F0080F0AD14FF4006311498A6E55
S21440285012F0080F03D1013BF9D1012070470D4A11
S214402860136B23F0030343F002031363936E13F0DA
S214402870080F0AD14FF4006306498A6E12F0080F1B
S21440288005D1013BF9D10120704700207047002058
S214402890704700BF00040E40C8B9114A136A0902C7
S2144028A089B223F45C1323F0030343F45C1343F030
S2144028B001030B431362936E13F0010FFBD0084ADB
S2144028C0136A43F09B7343F48033136270470449A2
S2144028D00B6A044A1A40044B13430B62704700BF0E
S2144028E000040E40FCFFC8FE02003701024B986E03
S2144028F000F48030704700BF00040E404FF0005296
S214402900014B9A62704700BF00040E40024B986E1F
S21440291000F00200704700BF00040E402F281ED86B
S2144029201F280CD8114B9A6901238340934318D033
S214402930012303FA00F00D4B186100207047203841
S2144029400A4BD3F808210123834093430BD001233D
S21440295003FA00F0054BC3F8000100207047012041
S2144029607047002070470020704700BF00040E40AC
S214402970FEE7000000B583B0254B264A9A4210D0A9
S214402980254B234A9A420CD2013B9B1A23F0030361
S214402990043313441F4951F8040B42F8040B9A427F
S2144029A0F9D11E4B1E4A9A420AD2013B9B1A23F08B
S2144029B0030304331344002142F8041B9342FBD123
S2144029C0184A194B23F07F039360EFF31083B3FA52
S2144029D083F35B09019372B6BFF35F8F0022134BFC
S2144029E01A700199124A136843F470031360BFF3D8
S2144029F04F8FBFF36F8F29B101220C4B1A70BFF374
S214402A005F8F62B60B4B98470B4B9847FEE700BF6D
S214402A1000000020343440003C04002080060020A3
S214402A203C04002000ED00E00000400008000020CC
S214402A3088ED00E0BD2D4000BD2B40003B4B1B6B9E
S214402A4003F00303012B1DD083B1022B36D0374B46
S214402A501B6B03F07003702B5FD0344B1A6B3449FA
S214402A60C2F302120B68D3400B607047314B5B6970
S214402A7013F0800F14BF4FF400424FF4FA422C4B31
S214402A801A60E4E7294B1B6A13F0807F03D02A4A7A
S214402A90274B1A60DBE7294A254B1A60234B1B6AF3
S214402AA003F07003102B05D0202BD0D1224A204BA8
S214402AB01A60CCE7224A1E4B1A60C8E71B4B1B6ABB
S214402AC013F0807F16D01C4A194B1A60174B1B6BAD
S214402AD003F00303022BBAD1144A916A926A14484F
S214402AE0C1F30A41036801FB0333D2B2B3FBF2F3EE
S214402AF00360ACE7114A0E4B1A600C4B1B6A03F09E
S214402B007003102B05D0202BE0D10B4A084B1A60DF
S214402B10DCE70B4A064B1A60D8E7054A13680949B2
S214402B20A1FB03135B081360704700BF00040E4010
S214402B300C00002010180E40001BB70000093D0096
S214402B4000127A00ABAAAAAA124B984211D9124B8D
S214402B50984213D9114B984214D9114B984215D923
S214402B60104B984294BF4FF004220F4A0F4B1A6006
S214402B7070474FF080620D4B1A6070470C4A0B4B03
S214402B801A6070470B4A094B1A6070470A4A074B4F
S214402B901A607047FF2C3101FF596202FF8693038B
S214402BA0FFB3C404FFE0F50500050004000A0E402C
S214402BB000010004000200040003000480B58AB04F
S214402BC04C4B98474C4B98474C4AC2F1005303F540
S214402BD0003323F00703073222F007020292A3F5E0
S214402BE0806303934FF0C24304934FF4002305934E
S214402BF04FF0C6420692079300240894099402A810
S214402C003F4B984709203F4DA8470A20A8473E4BD0
S214402C1098473E4B98473E4B98473E483E4B9847D2
S214402C202246012105203D4DA8473D4B18602246CF
S214402C3001210520A8473B4B18602246012105206C
S214402C40A847394B1860224632210520A847374B03
S214402C501860DFF80481364F0194012500952B4615
S214402C60822241463846334EB047019400950223AF
S214402C70822241463846B04701940095032382227B
S214402C8041463846B047DFF8D4802B4F2B4B019354
S214402C9000952B46822241463846B047DFF8C0A012
S214402CA0CDF804A000950223822241463846B0471C
S214402CB0DFF8B090CDF80490009503238222414679
S214402CC03846B04701940095234682221C491D4849
S214402CD0B04701940095234682221B491B48B047C3
S214402CE0DAF800001A4CA047D9F80000A047194B64
S214402CF09847FEE759274000C1274000803600200D
S214402D00850740001D29400055234000712440009F
S214402D104121400000060E40D1264000150B4000E1
S214402D20540600204C06002058060020500600207E
S214402D30952140007D12400099224000FC0500206D
S214402D40DC3340000D234000EC334000E1224000DD
S214402D504D19400019154000C4334000D0334000A0
S214402D60000600200406002082B0002301934FF0A6
S214402D70500383F31188BFF36F8FBFF34F8F019BD0
S214402D801BB900BF019B002BFBD0002383F31188A7
S214402D9002B0704708B5B6210148024B984708BDB7
S214402DA0FC334000692D40004FF0500383F31188F8
S214402DB0BFF36F8FBFF34F8FFEE7000070B50F4E27
S214402DC00F4D761BB61018BF002405D0013455F8B9
S214402DD0043B9847A642F9D10A4E0B4D761B00F0AD
S214402DE017FBB61018BF002406D0013455F8043B34
S214402DF09847A642F9D170BD70BD00BF1C34400054
S214402E001C344000243440001C344000844641EAD0
S214402E10000313F003036DD1403A41D351F8043B0D
S214402E2040F8043B51F8043B40F8043B51F8043B5F
S214402E3040F8043B51F8043B40F8043B51F8043B4F
S214402E4040F8043B51F8043B40F8043B51F8043B3F
S214402E5040F8043B51F8043B40F8043B51F8043B2F
S214402E6040F8043B51F8043B40F8043B51F8043B1F
S214402E7040F8043B51F8043B40F8043B51F8043B0F
S214402E8040F8043B51F8043B40F8043B51F8043BFF
S214402E9040F8043B51F8043B40F8043B403ABDD26E
S214402EA0303211D351F8043B40F8043B51F8043B10
S214402EB040F8043B51F8043B40F8043B51F8043BCF
S214402EC040F8043B103AEDD20C3205D351F8043B9F
S214402ED040F8043B043AF9D2043208D0D2071CBF6B
S214402EE011F8013B00F8013B01D30B880380604694
S214402EF0704700BF082A13D38B078DD010F003030A
S214402F008AD0C3F10403D21ADB071CBF11F8013B79
S214402F1000F8013B80D331F8023B20F8023B7BE7C8
S214402F20043AD9D3013A11F8013B00F8013BF9D2F3
S214402F300B7803704B7843708B788370604670478D
S214402F4070B4860746D0541E002A41D0CAB2034603
S214402F5002E014F1FF343BD303F8012B9D07F8D170
S214402F60032C2ED9CDB245EA05250F2C45EA05455A
S214402F7019D903F110022646103E0F2E42F8105C77
S214402F8042F80C5C42F8085C42F8045C02F110021D
S214402F90F2D8A4F1100222F00F0204F00F0410320F
S214402FA0032C13440DD91E462246043A032A46F8FB
S214402FB0045BFAD8221F22F003020432134404F0C2
S214402FC003042CB1C9B21C4403F8011B9C42FBD13C
S214402FD070BC704714460346C2E700BF00000000BE
S214402FE0000000000000000000000000000000009C
S214402FF0000000000000000000000000000000008C
S21440300090F800F06DE9024520F007016FF0000CE3
S21440301010F0070491F820F040F049804FF000048B
S2144030206FF00700D1E9002391F840F000F1080066
S21440303082FA4CF2A4FA8CF283FA4CF3A2FA8CF39E
S2144030404BBBD1E9022382FA4CF200F10800A4FA05
S2144030508CF283FA4CF3A2FA8CF3E3B9D1E9042359
S21440306082FA4CF200F10800A4FA8CF283FA4CF390
S214403070A2FA8CF37BB9D1E9062301F1200182FA4A
S2144030804CF200F10800A4FA8CF283FA4CF3A2FA50
S2144030908CF3002BC6D0002A04BF04301A4612BA5E
S2144030A0B2FA82F2FDE8024500EBD2007047D1E961
S2144030B0002304F00305C4F100004FEAC50514F0F0
S2144030C0040F91F840F00CFA05F562EA05021CBFC1
S2144030D063EA050362464FF00004A9E7024B13B1CA
S2144030E0024800F005B8704700000000FD30400080
S2144030F0002301461A46184600F01EB838B50A4C5A
S2144031000A4D641BA4100AD004F18043013B05EB32
S2144031108305013C55F804399847002CF9D1BDE8A1
S214403120384000F07FB900BF3434400030344000AF
S214403130704700BF704700BF2DE9F8432C4D064648
S214403140286898460F469146FFF7F2FF294B1C68C1
S214403150D4F84831002B3ED05A681F2A1CDC02F1B6
S214403160010E76B103EB82010124C1F88890D3F8B2
S214403170880194402043022EC3F88801C1F8088194
S21440318023D00232C3F804E0286843F82270FFF7E1
S214403190D1FF0020BDE8F883174B0BB34FF4C8703F
S2144031A0AFF300800346D8B1D4F84821026000212E
S2144031B041600A46C4F848014FF0010EC0F8881135
S2144031C0C0F88C11002EDCD0CCE7D3F88C110C4321
S2144031D0C3F88C41D5E704F5A673C4F84831BBE77D
S2144031E02868FFF7A7FF4FF0FF30BDE8F88300BF21
S2144031F0380400200C344000000000002E2E2F73B0
S21440320072632F4672656552544F532F706F7274B7
S21440321061626C652F4743432F41524D5F434D34A7
S214403220462F706F72742E63000000002E2E2F7390
S21440323072632F4672656552544F532F706F727487
S21440324061626C652F4D656D4D616E672F68656177
S214403250705F352E630000002E2E2F7372632F464C
S21440326072656552544F532F71756575652E6300B0
S2144032702E2E2F7372632F4672656552544F532F0E
S2144032807461736B732E630049444C450000000024
S214403290546D725100000000546D722053766300E6
S2144032A02E2E2F7372632F4672656552544F532FDE
S2144032B074696D6572732E6300000000496E637218
S2144032C0656173696E67204C6564203120666C6169
S2144032D073682073706565640D0A0000496E6372FA
S2144032E0656173696E67204C6564203220666C6148
S2144032F073682073706565640D0A0000496E6372DA
S214403300656173696E67204C6564203320666C6126
S21440331073682073706565640D0A000044656372C7
S214403320656173696E67204C6564203120666C6108
S21440333073682073706565640D0A000044656372A7
S214403340656173696E67204C6564203220666C61E7
S21440335073682073706565640D0A00004465637287
S214403360656173696E67204C6564203320666C61C6
S21440337073682073706565640D0A00004C454420F0
S21440338032206973204E6F77204163746976650DED
S2144033900A0000004C45442033206973204E6F7766
S2144033A0204163746976650D0A0000004C45442050
S2144033B031206973204E6F77204163746976650DBE
S2144033C00A0000004C4544205461736B0000000026
S2144033D04C454420436F6E74726F6C005541525496
S2144033E020436F6E74726F6C000000004865617217
S2144033F07462656174205461736B00002E2E2F73C7
S21440340072632F6D61696E2E63000000100000200D
S214403410F8B500BFF8BC08BC9E467047DD3040009B
S2144034201D014000F8B500BFF8BC08BC9E4670477A
S208403430F90040001A
S214403434AAAAAAAA070000000100000000093D004D
S21440344400000000FC02002064030020CC0300209F
S2144034540000000000000000000000000000000023
S2144034640000000000000000000000000000000013
S2144034740000000000000000000000000000000003
S21440348400000000000000000000000000000000F3
S21440349400000000000000000000000000000000E3
S2144034A400000000000000000000000000000000D3
S2144034B400000000000000000000000000000000C3
S2144034C400000000000000000000000000000000B3
S2144034D400000000000000000000000000000000A3
S2144034E40000000000000000010000000000000092
S2144034F40E33CDAB34126DE6ECDE05000B00000057
S2144035040000000000000000000000000000000072
S2144035140000000000000000000000000000000062
S2144035240000000000000000000000000000000052
S2144035340000000000000000000000000000000042
S21040386400000000000000005C06002091
S8044029751D
